:020000040800F2
:10000000080400209D010008C303000875030008D0
:10001000BF030008E5010008F70500080000000024
:10002000000000000000000000000000E9030008DC
:10003000E901000800000000C7030008B10400083F
:10004000B7010008B7010008B7010008B7010008B0
:10005000B7010008B7010008B7010008B7010008A0
:10006000B7010008B7010008B7010008B701000890
:10007000B7010008B7010008B7010008B701000880
:10008000B7010008B7010008B7010008B701000870
:10009000B7010008B7010008B7010008B701000860
:1000A000B7010008B7010008B7010008B701000850
:1000B000B70100080000000000000000B7010008C0
:1000C000B7010008B7010008B701000800000000F0
:1000D000B701000855050008B7010008B70100087E
:1000E000ED010008B7010008B7010008000000009A
:1000F0000000000000000000000000000000000000
:10010000000000000000000000000000B70100082F
:100110000000000000000000B7010008000000001F
:1001200000000000000000000000000000000000CF
:1001300000000000000000000000000000000000BF
:10014000B7010008B701000800000000000000002F
:10015000000000000000000000000000000000009F
:10016000B7010008B7010008B7010008B70100088F
:10017000B7010008000000000000000000000000BF
:1001800000000000B7010008DFF80CD000F018F8FC
:100190000048004719060008080400200648804768
:1001A00006480047FEE7FEE7FEE7FEE7FEE7FEE75C
:1001B000FEE7FEE7FEE7FEE7B90400088901000854
:1001C000064C074D06E0E06840F0010394E80700A4
:1001D00098471034AC42F6D3FFF7DAFF70060008F8
:1001E0009006000800BFFEE77047000010B50D2024
:1001F00000F024F880B14FF40051084800F0ACF84A
:10020000C0F10100C4B222464FF40051034800F08F
:10021000ACF80D2000F004F810BD00000004004808
:1002200000F01F02012191404209034B03EB4212EF
:10023000C2F81414704700000000014010B50146D8
:1002400000204A09074B03EB4212D2F8142401F0B4
:100250001F040123A3401A400AB1012000E000203E
:1002600010BD0000000001401CB54FF4005000908C
:1002700001208DF8040000208DF8060002208DF882
:10028000070003208DF805006946074800F010F8C4
:100290004FF40050009002208DF804006946034896
:1002A00000F006F81CBD00000004004800080048EB
:1002B000F0B50A46002100240025002300BF3FE0DE
:1002C000012606FA01F4166806EA0405A54236D1AD
:1002D0001679012E02D01679022E18D186684FEABF
:1002E000410C032707FA0CF7BE43866056794F008E
:1002F000BE4087683E438660868801278F40BE43A4
:100300008680878896798E40B6B2374387800668A4
:100310004FEA410C032707FA0CF7BE430660167933
:100320004F00BE4007683E430660C3684F00032687
:10033000BE40B343D6794F00BE403343C360491C2F
:100340001029BDD3F0BD02460020138A0B400BB12B
:10035000012000E00020704702460020938A0B40F5
:100360000BB1012000E0002070470AB1816100E07C
:100370000185704700BFFEE770B505460E46314661
:100380002846FFF7E0FF012817D1002400E0641C95
:1003900042F210708442FAD331462846FFF7D3FF69
:1003A000012808D100BF31462846FFF7CCFF0128BD
:1003B000F9D0012070BD0020FCE70020FAE700BF63
:1003C000FEE770477047704729B1064A52690243F9
:1003D000044B5A6104E0034A52698243014B5A615B
:1003E0007047000000100240704700000CB500206C
:1003F000019000902C48006840F480302A49086041
:1004000000BF2948006800F4003000900198401CAB
:100410000190009818B90198B0F5A04FF1D1224889
:10042000006800F4003010B10120009001E00020CD
:1004300000900098012836D112201C4908601A4803
:100440004068194948600846406848600846406866
:1004500040F4806048600846406820F47C104860A2
:100460000846406840F4E81048600846006840F0DC
:100470008070086000BF0C48006800F00070002821
:10048000F9D00948406820F0030007494860084651
:10049000406840F00200486000BF0348406800F038
:1004A0000C000828F9D10CBD0010024000200240C9
:1004B00010B500F043F810BD10B51B48006840F4BB
:1004C0007000194908601948006840F00100174998
:1004D00008600846406816490840144948600846C4
:1004E000006814490840114908600846006820F473
:1004F000802008600846406820F4FE0048600846F6
:10050000C06A20F00F00C8620846006B0A49084024
:100510000649086300208860FFF768FF4FF000601D
:1005200001498039086010BD88ED00E000100240EC
:100530000CC07FF8FFFFF6FECCFC00FF044800680B
:1005400020B103480068401E014908607047000060
:100550000000002010B50A490A4800F01EF870B1EA
:10056000084800F03FF804462146064800F03FF8EE
:1005700000BF8021034800F007F80028F9D010BD23
:10058000050105000038014002460020D3690B40F8
:100590000BB1012000E00020704770B502460B4609
:1005A0000024002100250020C3F30725D9B201262D
:1005B00006FA01F1012D02D11668314006E0022D44
:1005C00002D15668314001E0966831401C0C01268A
:1005D00006FA04F4D669344011B10CB1012000E0F0
:1005E000002070BD0146888CC0F308007047C1F33D
:1005F00008020285704700BFFEE702E008C8121F2C
:1006000008C1002AFAD170477047002001E001C1FB
:10061000121F002AFBD1704701218804FFF7D4FE86
:100620000121C804FFF7D0FEFFF7CCFEFFF71CFE48
:10063000012251030C48FFF798FE13E04FF40051DC
:100640000A48FFF799FE01280CD141030648FFF73D
:1006500083FEC0F10100C4B222464FF400510248AB
:10066000FFF783FEEAE700000004004800080048A6
:10067000900600080000002004000000FA050008B1
:100680009406000804000020040400000A06000884
:040690000000000066
:040000050800018965
:00000001FF
